:020000040800F2
:100000003808002065020008532300080323000875
:1000100051230008F3110008E9290008000000003E
:10002000000000000000000000000000BF230008E6
:10003000F511000800000000BD2300084524000859
:100040007F0200087F0200087F0200087F0200088C
:100050007F0200087F020008F71100087F020008F5
:100060007F0200087F0200087F0200087F0200086C
:100070007F0200087F0200087F0200087F0200085C
:100080007F0200087F0200087F0200087F0200084C
:100090007F0200087F0200087F0200087F0200083C
:1000A0007F0200087F0200087F0200087F0200082C
:1000B0007F0200089D2400087F0200087F020008DC
:1000C0007F0200087F0200087F0200087F0200080C
:1000D0007F020008A52900087F0200087F020008AF
:1000E0007F0200087F0200087F0200087F020008EC
:1000F0007F0200087F0200087F0200087F020008DC
:100100007F0200087F0200087F0200087F020008CB
:100110007F0200087F0200087F0200087F020008BB
:100120007F0200087F0200087F0200087F020008AB
:100130007F0200087F0200087F0200087F0200089B
:100140007F0200087F0200087F0200087F0200088B
:100150007F0200087F0200087F0200087F0200087B
:100160007F0200087F0200087F0200087F0200086B
:100170007F0200087F0200087F02000800000000E4
:100180007F0200087F0200087F0200087F0200084B
:100190007F0200087F0200087F0200087F0200083B
:1001A0007F0200087F0200087F02000800F002F8CA
:1001B00000F049F80AA090E8000C82448344AAF1B8
:1001C0000107DA4501D100F03EF8AFF2090EBAE8B6
:1001D0000F0013F0010F18BFFB1A43F0010318477B
:1001E00080300000A0300000103A24BF78C878C1E9
:1001F000FAD8520724BF30C830C144BF04680C602D
:10020000704700000023002400250026103A28BF74
:1002100078C1FBD8520728BF30C148BF0B60704778
:10022000662902F0C887002070471FB502F0B9FFA9
:1002300000F09EFA04000020002102F08FFCE06034
:100240001FBD10B510BD00F0ABFB1146FFF7EDFF71
:1002500002F012FC00F0C9FB03B4FFF7F2FF03BC8D
:1002600002F0DBFB0948804709480047FEE7FEE74C
:10027000FEE7FEE7FEE7FEE7FEE7FEE7FEE7FEE756
:1002800004480549054A064B704700004924000808
:10029000AD01000838020020380800203804002092
:1002A00038040020704700000FB4044910B503AAB9
:1002B000029800F04BFA10BC5DF814FB24000020FB
:1002C0002DE9F0410E460446002020622046E168F8
:1002D000884730B3252805D0D4E901219047206A0A
:1002E000401CF2E7E168204600278847050018D047
:1002F000A5F14100192802D820354FF40067324695
:10030000294620462760FFF78BFF40B1012804D023
:10031000F61D26F007060836D8E7361DD6E728462C
:10032000DAE7206ABDE8F081704770477047704790
:1003300070472DE9FF4F0C461E464FF0FF378BB03C
:10034000D2E90001DDF860800A908A46C1F30A55BF
:1003500005B93D46002108464FF00000BAF1000FF4
:1003600000F4400005DA00EB80004FF4400101EAA0
:1003700050004FEA9059B9F1010F00DDB9460A98D3
:1003800050EA4A000ED044F61050A5F2FF3545431E
:100390002F14B8F1000F1ED07542291E1EDDC9F1C1
:1003A00000021CE0B8F1010F4FF0000001D0302135
:1003B00003E0F24305E02154401CB042FBDB304631
:1003C0000022002121540B99C1F80880C1E90020C6
:1003D0000FB0BDE8F08FBD1B6D1CDEE74A4600DAAA
:1003E000694206A800F066FA06AB93E8070003AB83
:1003F00083E8070050460A9900F040FB8DE80700AB
:10040000A0F500501F3800900398002D09DD42F23E
:100410001F014A46084403A90390684600F09FFD67
:1004200008E0A0F500504A461F3803A9039068462B
:1004300000F0A9FD8DE807000004000C03D04FF088
:10044000FF30410800E01046B8F1000F03D0002251
:10045000009215461EE0751E05D400F08DF930326D
:1004600062556D1EF9D5B3460122084302D0002221
:100470007F1C04E02078302801D100227F1E002A52
:10048000099786D01DE0112D07DA00F075F930329A
:1004900062556D1C50EA0102F5D1084302D0009864
:1004A000C8B10EE00021681E05E0235C625C635465
:1004B0002254401E491C8142F7DBAB46A81B401E5C
:1004C0000990002004F80B000B98099AC0F80880E6
:1004D000C0E9002B7CE711264FF0000859E72DE911
:1004E000F04F88460446D21D22F0070191B0D1E9B1
:1004F0000001CDE90A0102F078FA02460B98C00F1C
:1005000001D02D2007E02068810701D52B2002E0D3
:10051000202101EAC000032A099001D0072A05DB47
:1005200003464146204600F085F90BE1207880061D
:1005300001D5E06900E00620B8F1650F814606D0DC
:10054000B8F1660F18D0B8F1670F70D131E0002014
:10055000B9F1110F009001DB112301E009F1010352
:100560000AAA01A90CA8FFF7E4FEDDE90C70002639
:1005700009F10105834647E001204B4600904FF00A
:1005800000470AAA01A90CA8FFF7D3FEDDE90DB0C8
:100590000C995D46002610B909F101000D18B9EB60
:1005A000050003D4C0F1FF3609F10105A5EB0900F0
:1005B0002BE0B9F1010F01DA4FF001090020B9F188
:1005C000110F0090484601DD112300E003460AAAFE
:1005D00001A90CA8FFF7ADFEDDE90C704D46002621
:1005E0008346207800070AD4AB4500DA5D4601A8AF
:1005F000012D04DD411911F8011C302907D04F45A8
:1006000002DA17F1040F04DA012082460FE06D1EB2
:10061000EEE7002F02DCED1B3E4403E0781CA8420D
:1006200000DD7D1CB81B00F1010A4FF00047207867
:10063000000703D4AA4501DB4FF0FF3A0021B7F1D0
:10064000004F0DF143088DF8431024D002202B23D6
:10065000002F01DA7F422D230A21021EA0F10100A2
:1006600000DC5FB197FBF1FC97FBF1F201FB1C7C16
:1006700017460CF1300C08F801CDEEE7A8F10100A7
:1006800003702188090501D5452100E06521A0F10D
:10069000010800F8011C09980FA9A1EB0807FF1D2C
:1006A00000B10120411901EBEA70A1693844081A30
:1006B000401EA0612078C00602D42046AFF300801F
:1006C000099828B1D4E901219047206A401C206292
:1006D0002078C00622D52046AFF300801EE0002E11
:1006E00004DBB34502DD01A8805D00E03020D4E9E1
:1006F00001219047206A401C2062761CAAF101006B
:100700005FEA000A0AD100F033F8C0680168405C73
:10071000D4E901219047206A401C2062281EA5F1DF
:100720000105DCDC07E0D4E9012118F8010B904752
:10073000206A401C2062381EA7F10107F3DC204626
:10074000AFF30080032011B043E60000074B70B503
:100750000D467B4400F05BF80446284600F018F98B
:1007600010B14FF0FF3070BD204670BD0F23000068
:1007700000487047F801002030B5B0F10A024FEA96
:10078000900E71F100034EEA817EB0EB0E0061EB3A
:1007900091014FEA101E4EEA017E10EB0E0041EB74
:1007A00011114FEA102E4EEA016E10EB0E0041EBD4
:1007B00011214FEA104E4EEA014E10EB0E0041EBB4
:1007C0001141401841F100014FEAD00040EA417068
:1007D0004FEAD10110EB80054FEA810444EA90749E
:1007E00044EB01046D1944EB0404521BA3414FF088
:1007F000000348BF0A3200D530BD401C41F1000162
:1008000030BD000001694A1C02610878704700B5DC
:100810008FB0CDE901310021059105497944CDE939
:10082000031011466846FFF74BFD0FB000BD0000F6
:10083000E5FFFFFF2DE9F0411F460446032601684E
:10084000072A01F4006004DB08B116A505E016A52F
:1008500003E008B115A500E015A521F01000206007
:10086000A069C01EA0610FB1401EA0612046AFF379
:1008700000804FB1D4E9012138469047206A401CDE
:100880002062C01C206206E0206AFAE7D4E9012158
:1008900015F8010B9047761EF8D22046AFF3008082
:1008A000BDE8F0814E414E006E616E00494E46003B
:1008B000696E66002DE9F047814616468AB03348D6
:1008C00078440DC88DE80D0030487844801C03AC96
:1008D0000DC884E80D0041F69B300844372190FB99
:1008E000F1F290FBF1F5A5F1800501FB12041B3C30
:1008F00002D56442012000E00020DFF890A080468D
:100900000027FA44AAF1BE0A0DE0E00709D03246FA
:10091000684607EB47010AEB810100F034FB8DE8E4
:10092000070064107F1C002CEFD1184F7F44AC3FB0
:1009300018E0E80714D007EB04100DF1180A90E84E
:100940000E008AE80E00C068F04201D198190890A4
:10095000324606A903A800F016FB03AB83E80700A4
:100960006D10641C002DE4D132466946B8F1000FC9
:1009700003A802D000F0F3FA01E000F004FBC9E99B
:100980000001C9F808200AB0BDE8F08784290000FA
:10099000007B00F08000704700487047D8010020BD
:1009A0007546FFF7F9FFAE4605006946534620F04D
:1009B0000700854618B020B5FFF762FCBDE820406F
:1009C0004FF000064FF000074FF000084FF0000B0B
:1009D00021F00701AC46ACE8C009ACE8C009ACE8BE
:1009E000C009ACE8C0098D46704710B50446AFF3A6
:1009F00000802046BDE81040FFF72EBC4FF0013CC0
:100A000050F8042B51F8043B9A4221D1A2EB0C037D
:100A1000934313EACC1317D150F8042B51F8043B3D
:100A20009A4215D1A2EB0C03934313EACC130BD1DA
:100A300050F8042B51F8043B9A4209D1A2EB0C0365
:100A4000934313EACC13DBD04FF00000704700BF94
:100A5000D01A01BAB1FA81F101F0180122FA01F0BD
:100A6000CB40C1F12001DBB2C0B2C01A2CFA01F3B5
:100A7000D11A914311EAC311E6D170475FEA400CE5
:100A800008BF91F0000F4FEA8C234FEAC12243EADE
:100A900051514FEA1C5018BF00F5F0404FEA3000AA
:100AA00018BF41F000415FEA6C5C00F02980BCF1A6
:100AB000FF3F08BF40F080407047130C06BF120490
:100AC0004FF0100C4FF0000C130E04BF12020CF18B
:100AD000080C130F04BF12010CF1040C930F04BF98
:100AE00092000CF1020CD30F04BF52000CF1010C68
:100AF00011464FF00002A0F11F00A0EB0C00704760
:100B000011F0004F08BF704731F000413FF4D5AFFE
:100B10000B0C06BF09044FF0100C4FF0000C0B0E2D
:100B200004BF09020CF1080C0B0F04BF09010CF102
:100B3000040C8B0F04BF89000CF1020CCB0F04BF17
:100B400049000CF1010CCCF12003A0EB0C0022FABF
:100B500003F302FA0CF241EA030100F101007047CD
:100B600020F07F4C80EA030023F07F47ACEB0703C3
:100B700003F57C5300F0004003F1FF032DE98049A9
:100B80004FEA154B09B44FEA144325EA0B4E24EA09
:100B900003480FF2042606EB132749083E785FEA64
:100BA000320203FB0667C7F5000707FB06F64FEAAC
:100BB00054374FEAD64606F1020607FB066CCCF125
:100BC000005C4FEA1C472CEA074C07FB06F40CFBC1
:100BD00006F504EB15464FEA961634BF00204FF099
:100BE00000404FEAD13706FB07FC4FEA1C4C0CFBD8
:100BF0000BF7D21B03FB0CF761EB07010CFB0EF7A5
:100C0000B0EB074072EB17420CFB08F734BFA2EBC6
:100C10000742B2EB074261EB17414FEA0C444FEA3F
:100C2000910706FB07FC4FEA1C4C0CFB0BF7B0EBE3
:100C3000C74072EB573203FB0CF734BFA2EBC7423D
:100C4000B2EBC74261EB57310CFB0EF7B0EBC700BC
:100C500072EB57720CFB08F734BFA2EBC702B2EB82
:100C6000C70261EB5771039F4FEA816141EA92111C
:100C700004EBCC044FEAD1374FEA826206FB07FC53
:100C800042EA90124FEA80604FEA1C4C0CFB0BF7D3
:100C9000D21B03FB0CF761EB07010CFB0EF7B0EB6B
:100CA000074072EB17420CFB08F734BFA2EB074278
:100CB000B2EB074261EB17414FEA8C554FEA9107BF
:100CC00004EB9C2406FB07FC4FEA1C4C0CFB0BF7C7
:100CD000B0EBC74072EB573203FB0CF734BFA2EB0B
:100CE000C742B2EBC74261EB57310CFB0EF7B0EBDA
:100CF000C70072EB57720CFB08F734BFA2EBC702B8
:100D0000B2EBC70261EB577115EB4C254FEA8161DD
:100D100041EA92114FEA82624FEAD13742EA9012D9
:100D200006FB07FC44F100044FEA80604FEA1C4CCC
:100D30000CFB0BF7D21B03FB0CF761EB07010CFB61
:100D40000EF7B0EB074072EB17420CFB08F734BF0D
:100D5000A2EB0742B2EB074261EB174115EB1C1502
:100D60004FEA813141EA92414FEA823242EA9042AF
:100D70004FEA80304FEA0C7644F1000448EA03431E
:100D80004EEA0B484FF0000EB2EB080C71EB030774
:100D900024BF624639464EEB0E0E4FF0000B001892
:100DA000524149414BEB0B0BB2EB080C71EB0307C3
:100DB0007BF1000B24BF624639464EEB0E0E4FF01E
:100DC000000B0018524149414BEB0B0BB2EB080CE6
:100DD00071EB03077BF1000B24BF624639464EEBF3
:100DE0000E0E51EA020718BF46F0010616EB0E760A
:100DF00055F1000254F1000103D5BDE88901BDE8B9
:100E00000088BDE88901BDE80048B619524141EBB0
:100E10000101A3F10103704780807F7E7D7C7B7A96
:100E20007978777676757473727171706F6E6E6D96
:100E30006C6C6B6A6A69686867666665646463633C
:100E400062616160605F5F5E5E5D5D5C5C5B5B5AC2
:100E50005A5959585857575656555555545453532F
:100E600052525251515050504F4F4F4E4E4D4D4D8A
:100E70004C4C4C4B4B4B4A4A4A49494948484847D5
:100E80004747474646464545454444444443434313
:100E90004342424242414141002B26D4770021D0B7
:100EA0001CB54FEA370703B44FF010004FF01001A4
:100EB0004FF000000FBCBDE810400BF1010BBBF17F
:100EC000010F08BF5FEA170722BF12F1010211F1FB
:100ED00001014FF0004143F1000300F0004043EAFC
:100EE00000007047F9D35708DAE746EA064613F1DF
:100EF000400F4FEA16461FDD13F1200FDFBF1643E8
:100F00000A46002120335B42C8D0C3F1200746EADD
:100F1000064602FA07F74FEA164646EA0706C3F105
:100F2000200722FA03F201FA07F721FA03F14FF042
:100F3000000342EA0702B1E746EA020646EA06462D
:100F40004FEA164646EA0106BCBF46EA0646360C9C
:100F50004FF000034FF000024FF000019EE72DE933
:100F6000C048934630B491E8380007C831EA400CD5
:100F700048BF34EA430C03D5FFF7F2FDFFF78CFFBF
:100F8000F0BCBDE800882DE9C048934630B491E834
:100F9000380007C810F0804F08BF13F0804F03D10E
:100FA00000F005F8FFF778FFF0BCBDE8008820F0FE
:100FB0007F4780EA030023F07F4C07EB0C03A3F587
:100FC0007C5300F00040A3F1FE0392F0000F00F00C
:100FD000B38095F0000F00F077802DE901494FEACA
:100FE00011404FEA144621EA004800FB06FC24EABF
:100FF000064708FB06F607FB08F800FB07F718EBA7
:1010000006484CEB164C4FEA124B18EB07484FEAD8
:1010100015464CEB174022EA0B4E0BFB06FC25EA6B
:1010200006470EFB06F607FB0EFE0BFB07F71EEB53
:10103000064E4CEB164C4FF000061EEB074E4CEBE9
:10104000174B18EB0B0840F1000018EB0E0B58EB98
:10105000000840F100008F1A4FF000013CBFC94367
:10106000661B14BFB5EB040C00213CBFC943F61B43
:101070004FEA17444EEA8E0E27EA04454FEA1C4712
:1010800004FB07622CEA074C05FB07F70CFB05F68F
:1010900004FB0CFC16EB074642EB174216EB0C4622
:1010A00042EB1C421BEB060658EB0202414146EAAA
:1010B0009E0601D5BDE80189B619524141EB0101F7
:1010C000A3F10103BDE801894FEA14454FEA114736
:1010D00024EA054621EA074C05FB07F406FB07F75F
:1010E0000CFB06F105FB0CFC11EB074144EB17442C
:1010F0004FEA124711EB0C4144EB1C4422EA074C27
:1011000005FB07F206FB07F70CFB06F605FB0CFCDC
:1011100016EB074642EB174216EB0C4642EB1C451A
:101120006A1854F1000148BF7047B619524141EBAB
:101130000101A3F10103704795F0000F37D04FEA8A
:1011400011424FEA144721EA024624EA074C02FB07
:1011500007F106FB07F70CFB06F402FB0CFC14EB93
:10116000074441EB17414FEA154714EB0C4441EBA0
:101170001C4125EA074C02FB07F506FB07F70CFBB1
:1011800006F602FB0CFC16EB074645EB174516EB83
:101190000C4645EB1C42121951F1000148BF704743
:1011A000B619524141EB0101A3F1010370474FEA27
:1011B00014454FEA114724EA054621EA074C05FB8E
:1011C00007F106FB07F70CFB06F24FF0000605FBE4
:1011D0000CFC12EB074241EB174112EB0C4251EBB6
:1011E0001C4148BF7047921841EB0101A3F1010374
:1011F0007047FEE77047012000F02CB800B585B0BD
:1012000001200090022002900320039007480190E3
:101210006946074800F02AF8062000F058F9012234
:101220000221062000F05EF905B000BD000011109B
:101230000000024006484188491C4180017811B1F4
:101240000021416001704168491C41607047000005
:1012500034000020044910B50A68024202D0086038
:10126000FFF7E8FF10BD0000143C01402DE9F84FE6
:10127000DFF8A091002209F1040A0AF1040B4FF0F3
:101280000F080BF1040E01260B6896403340B34261
:1012900071D14C68022C01D0122C11D1D40800EB72
:1012A00084073D6A5407E40E08FA04FC25EA0C059D
:1012B000D1F810C00CFA04FC4CEA050CC7F820C0A9
:1012C00007685400032591F804C0A5400CF0030CF6
:1012D000AF430CFA04FC4CEA070CC0F800C04F689E
:1012E000012F05D0022F03D0112F01D0122F11D1C1
:1012F0008768D1F80CC0AF430CFA04FC4CEA070C29
:10130000C0F808C04768B7430E79C6F30016964088
:101310003E434660C668AE438D68A5403543C56010
:101320004C68E4006FD53C4C256845F48045256049
:10133000246822F0030504F480440094374C2E19ED
:10134000D6F808789407250F08FA05F4A743344C1B
:10135000A04201D100242EE0324CA04201D1012450
:1013600029E0314CA04201D1022424E02F4CA042BC
:1013700002D103241FE046E02D4CA04201D10424F9
:1013800019E02C4CA04201D1052414E02A4CA042C3
:1013900001D106240FE0294CA04201D107240AE024
:1013A000274CA04201D1082405E0264CA04201D1DF
:1013B000092400E00A24AC403C43C6F80848D9F8A8
:1013C00000404D464E689C43F60300D51C432C60FC
:1013D000DAF8004055464E689C43B60300D51C43DE
:1013E0002C60DBF800405D464E689C43F60200D559
:1013F0001C432C60DEF8004075464E689C43B602E4
:1014000000D51C432C60521C102AFFF43CAFBDE8F1
:10141000F88F0000003C0140443802400030014099
:10142000000002400004024000080240000C02409C
:10143000001002400014024000180240001C02404C
:1014400000200240002402400AB181617047090473
:10145000FBE700000148006870470000180000200A
:1014600002480168491C0160704700001800002014
:101470000B4810B5016841F400710160016841F446
:1014800080610160016841F480710160052000F015
:1014900049F80F2000F006F800F015F8002010BD04
:1014A000003C024010B5044600F096F94FF47A7102
:1014B000B0FBF1F000F0AAFB00222146501E00F024
:1014C00011F8002010BD08B50020009008BD00F004
:1014D0001F02012191404009800000F1E020C0F886
:1014E00000117047F0B40E4B1B68C3F30223C3F125
:1014F0000704042C00D904241D1D072D01D200234C
:1015000000E0DB1E012606FA04F56D1E0D409D402D
:101510009E40761E164045EA0601F0BC00F01ABF58
:101520000CED00E0064A00F0070110684FF6FF03DB
:10153000184040EA0120034908431060704700004A
:101540000CED00E00000FA052DE9F8431D480168A4
:1015500041F0805101600068012700F08050009048
:10156000380490FAA0F0DFF86080B0FA80F048F814
:101570002070FFF76FFF04464FF47A75134E04E0B6
:10158000FFF768FF001BA84213D87068C003F7D5A7
:101590004FF4003090FAA0F0B0FA80F048F82070D4
:1015A000FFF758FF044607E0FFF754FF001BA8426F
:1015B00002D90320BDE8F88370688003F4D50020C9
:1015C000F8E700004038024000000E420070004082
:1015D0002DE9F05FDFF8F8A104460F46DAF80000C5
:1015E000DFF8F08100F00F02C8B27A49814641F27B
:1015F000883608F10808BA4261D202468AF800200B
:10160000DAF8000000F00F00B8427DD120788007A2
:1016100007D5D8F80020A36822F0F0021A43C8F8D2
:1016200000202078C0072DD0606801281AD0022839
:101630001BD0032819D009688907002964DAD8F873
:101640000010474621F003010143C8F80010FFF7DE
:1016500001FF0546606801280FD0022818D0032832
:101660001CD027E009688903E7E709688901E4E7F6
:10167000FFF7F0FE401BB04258D83868C0F3810035
:101680000128F5D188E0FFF7E5FE401BB0424DD8B8
:101690003868C0F381000228F5D17DE03868FFF793
:1016A000D9FE401BB042F9D940E0FFF7D3FE401B02
:1016B000B0423BD8386810F00C0FF6D16CE02078BF
:1016C000800707D5D8F80020A36822F0F0021A435B
:1016D000C8F800202078C0074CD06068012828D0C6
:1016E000022829D0032827D009688907002949DA68
:1016F000D8F8002022F003020243C8F80020FFF7C8
:10170000A9FE0546606800E03CE001281DD00228E3
:1017100029D0032838D0B3464646306810F00C0F65
:1017200028D0FFF797FE411B5945F6D90320BDE8A5
:10173000F09F09688903D9E709688901D6E7FFF7AF
:1017400089FE411B594502D9F0E7B3464646306849
:10175000C0F381000128F2D10CE0FFF77BFE411BB2
:10176000594502D9E2E7B34646463068C0F38100E6
:101770000228F2D18AF80090DAF8000000F00F0099
:10178000B84209D00120D2E744462068FFF762FE44
:10179000401BB042F9D9C9E72078400707D5D8F8EF
:1017A0000010E26821F4E0511143C8F800102078DD
:1017B000000708D5D8F80010226921F4604141EAF9
:1017C000C201C8F800100F20FFF76CFE0020AEE742
:1017D000003C02400038024010B500F043F80849D0
:1017E0000968F02292FAA2F201F0F001B2FA82F254
:1017F000D140044A515CC8400349086010BD000054
:1018000008380240BA3100080400002010B5FFF784
:10181000E3FF074909684FF4E05292FAA2F201F49B
:10182000E051B2FA82F2D140024A515CC84010BD88
:1018300008380240BA31000810B5FFF7CDFF07495C
:1018400009684FF4604292FAA2F201F46041B2FAE0
:1018500082F2D140024A515CC84010BD08380240B3
:10186000BA31000830B51948006810F00C0118486A
:1018700012D0184C04290ED008290DD1134A121F7A
:101880001168136801F03F015D0247F6C07304D58B
:10189000B4FBF1F003E0204630BDB0FBF1F011687D
:1018A000194093FAA3F3B3FA83F3D940484311687C
:1018B0004FF4403292FAA2F201F44031B2FA82F2CD
:1018C000D140491C4900B0FBF1F030BD083802405E
:1018D0000024F40040787D012DE9F84F044600789B
:1018E000DFF8FCA2BF4DC0074FF0000648D0DAF881
:1018F00000105046C1F38101012908D00068C0F3EF
:10190000810002280AD1281D0068400206D52868F7
:10191000800335D56068002873D031E0DFF8C492C9
:1019200009F1020989F80060FFF794FD074641F2CA
:10193000883804E0FFF78EFDC11B41457AD828683E
:101940008003F7D4207989F80000606860B1FFF760
:1019500081FD074604E0FFF77DFDC11B4145EDD841
:1019600028688003F7D50BE0FFF774FD074604E015
:10197000FFF770FDC11B4145E0D828688003F7D40C
:101980002078DFF86492800744D5DAF800105046DA
:1019900011F00C0F4FF0F80809D00068C0F3810077
:1019A00002280BD18E48001F0068400206D4286828
:1019B000800714D5E068012823D110E0E068D0B199
:1019C0000120C9F80000FFF745FD074604E0FFF7D6
:1019D00041FDC01B6428B1D828688007F7D5286866
:1019E00098FAA8F22169B2FA82F220F0F800914048
:1019F000084328600EE0C9F80060FFF72BFD07469A
:101A000005E0EAE0FFF726FDC01B642812D828682D
:101A10008007F7D42078000725D5DFF8C481734804
:101A2000616908F16C0881B101210160FFF712FDC5
:101A3000074605E07EE0FFF70DFDC01B642879D85E
:101A4000D8F800008007F6D50DE00660FFF702FD2C
:101A5000074604E0FFF7FEFCC01B64286AD8D8F8EC
:101A600000008007F6D42078400753D55C48383012
:101A7000016841F0805101600068DFF8748100F076
:101A800080500090D8F8001041F48071C8F8001020
:101A9000FFF7E0FC074604E0FFF7DCFCC01B64280E
:101AA00048D8D8F80000C005F6D5DFF834B10BF1FE
:101AB000680B8BF80060FFF7CDFC074641F28838D1
:101AC00004E0FFF7C7FCC11B41457ED8DBF80000EE
:101AD0008007F6D4207A8BF80000A06868B1FFF781
:101AE000B9FC074604E0FFF7B5FCC11B41456CD8C3
:101AF000DBF800008007F6D50CE0FFF7ABFC0746EB
:101B000004E0FFF7A7FCC11B41455ED8DBF80000ED
:101B10008007F6D4A069E8B3DAF80010C1F38101B8
:101B200002295AD0022806D0C9F86060FFF792FC5B
:101B300004464DE049E04F46C9F86060FFF78AFC73
:101B4000064604E0FFF786FC801B64283DD8286821
:101B50008001F7D4D4E90701084347F6C07191FA30
:101B6000A1F1626AB1FA81F18A40A16A4FF0FF33B4
:101B700003EB51014FF4403393FAA3F3B3FA83F329
:101B800099400A4310434FF0706292FAA2F2B2FAFF
:101B900082F200E01FE0E16A914008431049091F0A
:101BA000086001203866FFF755FC044604E0FFF7A3
:101BB00051FC001B642808D828688001F7D50AE08A
:101BC000FFF748FC001B642802D90320BDE8F88F0A
:101BD00028688001F4D40020F8E70120F6E700002F
:101BE000083802400038024000004742800E474259
:101BF000007000404FF0E0210428086903D020F075
:101C000004000861704740F00400FAE710B5401E78
:101C1000B0F1807F01D3012010BD4FF0E02460615E
:101C20000F21601700F096FB0020A06107202061C3
:101C3000002010BD7047704710B5040003D094F821
:101C4000390010B107E0012010BD002084F83800F1
:101C5000204600F00DF8022084F83900211D20688C
:101C600000F03CFC012084F83900002010BD000089
:101C700008B500680B49884212D10B48016841F051
:101C8000020101600068032200F0020000900121BF
:101C90001D20FFF727FCBDE808401D20FFF717BCFB
:101CA00008BD000000040040403802400168CA68D6
:101CB00042F00102CA600068016841F00101016060
:101CC00000207047704770B50446006801694FF006
:101CD0000005C943890715D4C168C943890711D4D0
:101CE000E91E016101202076206880698007204676
:101CF00002D0FFF7E7FF04E000F098F8204600F07C
:101D000041F9257620680169C943490717D4C1689C
:101D1000C943490713D46FF0040101610220207602
:101D20002068806910F4407F204602D0FFF7CAFF88
:101D300004E000F07BF8204600F024F925762068C6
:101D40000169C943090716D4C168C943090712D4F8
:101D50006FF008010161042020762068C0698007C7
:101D6000204602D0FFF7AEFF04E000F05FF8204607
:101D700000F008F9257620680169C943C90617D41F
:101D8000C168C943C90613D46FF01001016108206E
:101D900020762068C06910F4407F204602D0FFF70B
:101DA00091FF04E000F042F8204600F0EBF82576C1
:101DB00020680169C943C90708D1C168C943C90777
:101DC00004D1891E0161204600F0FAF820680169FB
:101DD000C943090609D4C168C943090605D46FF08F
:101DE000800101612046FFF725FF20680169C94392
:101DF000490609D4C168C943490605D46FF04001BA
:101E00000161204600F030F920680169C943890664
:101E10000BD4C168C943890607D46FF02001016162
:101E20002046BDE87040FFF706BF70BD704770B533
:101E3000044690F838000D4601280DD0012684F89C
:101E40003860022084F8390042B1042A18D0082AE8
:101E50002AD00C2A4DD139E0022070BD206800F054
:101E6000A9FB2068816941F00801816120688169CE
:101E700021F004018161206881692A69114311E020
:101E8000206800F0C3FB2068816941F40061816132
:101E90002068816921F480618161206881692A69F3
:101EA00041EA0221816124E0206800F0E1FB206822
:101EB000C16941F00801C1612068C16921F00401D4
:101EC000C1612068C1692A69114311E0206800F0EE
:101ED000FFFB2068C16941F40061C1612068C169EC
:101EE00021F48061C1612068C1692A6941EA022147
:101EF000C16184F83960002084F8380070BD10B5E5
:101F0000040003D094F8390010B107E0012010BD9F
:101F1000002084F83800204600F00CF8022084F8F5
:101F20003900211D206800F0D9FA012084F8390019
:101F3000002010BD114800B5016887B041F00401D0
:101F40000160006800F0040005900C48103801683A
:101F500041F0080101600068694600F00800059042
:101F60004FF4005000900120029002200190049054
:101F70000348FFF77BF907B000BD0000403802407E
:101F8000000C02407047000010B5044600680122B2
:101F900000F004FB08482168814202D007488142D2
:101FA00003D1486C40F4004048642068016841F067
:101FB00001010160002010BD00000140000401404B
:101FC00070B505461F484FF4A7712DED028B0068D0
:101FD000B0FBF1F41C484068401C00F05FFF41EC8E
:101FE000100B1A4E53EC102B9FED190B51EC100BEC
:101FF00000F0FCFD41EC100B53EC102B9FED160B89
:1020000051EC100B00F0F2FD41EC180BE86800F009
:1020100045FF53EC182B00F055FF41EC180B204600
:1020200086ED008B00F03AFF53EC182B00F0DEFD3C
:1020300000F0AAFD0A4908600A4901200870BDECB9
:10204000028B70BD380000204401002028000020D1
:10205000000000002A759541000000000000F03FDC
:1020600000000020300000207047704790F83900D1
:10207000704738B5016804460868CA68C0F30000B4
:1020800002F4807238B132B1086848680090E06BA1
:1020900040F00100E06308684A69C0F3400002F0C4
:1020A000010238B132B1086848680090E06B40F036
:1020B0000400E06308684A69C0F3800002F001028E
:1020C00038B132B1086848680090E06B40F0020017
:1020D000E06308684A69C0F3C00002F0010238B149
:1020E00032B1086848680090E06B40F00800E06397
:1020F0000868C968C0F3401001F0200118B111B19F
:10210000204600F00DFB20680168C068C1F3C011D3
:1021100000F0800019B110B1204600F00FFC2168DA
:102120000868CA68C0F3801002F04002012568B157
:1021300062B1CA68204622F04002CA6094F83910A1
:1021400032290CD080F8395000F0DAF8E06B002822
:1021500004D084F839502046FFF787FF38BD22218C
:1021600080F83910F0E770B5040004D094F8390015
:10217000002510B106E0012070BD84F838502046DB
:1021800000F020F8022084F839002068C16821F4AA
:102190000051C160204600F017FB2068016921F45E
:1021A000904101612068416921F02A014161206864
:1021B000C16841F40051C160E563012084F8390031
:1021C000002070BD10B500681A4986B088422FD132
:1021D0001948016841F001010160006800F0010048
:1021E000059015481430016841F010010160006845
:1021F000012100F0100005904FF4007000900220C3
:10220000CDE90101039007200C4C0490694620465B
:10221000FFF72CF82115009169462046FFF726F8B4
:102220002520FFF754F9032211462520FFF75AF91C
:1022300006B010BD001001403038024000000240DE
:1022400090F83930012B01D0122B2BD131B32AB3A6
:1022500090F83830012B25D0012380F83830816286
:102260008285C2850022C26390F83910122917D0E6
:10227000222180F839100168CB6843F48073CB6069
:1022800001684B6943F001034B6180F83820006816
:10229000C16841F02001C1600020704701207047F3
:1022A0003221E6E70220704730B5006811498842C4
:1022B0000CD1114A5088010408D41146440409780D
:1022C0004FF0000306D50A2901D0538030BD40F4F9
:1022D00000400DE00D2909D0C0F30D04074D401C4E
:1022E00080B229555080C728EFD830BD40F48040D7
:1022F000508030BD00100140200000203C00002034
:102300007047FEE7104810B5016886B041F0020141
:1023100001600068012100F0020005900320CDE972
:102320000210CDE90001094C69462046FEF79EFFE8
:10233000012211462046FFF787F80122022120469C
:10234000FFF782F806B010BD3038024000040240AA
:10235000FEE770470907090E002806DA00F00F00B3
:1023600000F1E02080F8141D704700F1E02080F8B3
:102370000014704710B5104A04460E481060002043
:10238000C2E90110C2E903401046FFF7B8FD0A494F
:1023900002203C31042288606020086060084860A8
:1023A0000548FFF744FDBDE8104004210248FFF74F
:1023B000EBBD00000008004080010020704770471E
:1023C00070B51E4C92B00025266846F080562660F7
:1023D000246804F080541194194C266846F4404651
:1023E000266024680DF1240C04F440441194012467
:1023F00000940194022406948CE80D006605CDE952
:1024000007616846FFF768FA00B1FEE7FFF79CF83E
:1024100000B1FEE70CA90F2081E831004FF4A05075
:102420000F904FF48050109005210CA8FFF7D0F8C2
:10243000002800D0FEE712B070BD00004038024016
:1024400000700040FFF70CB81048016841F47001BB
:1024500001600F48016841F0010101600C4A002150
:102460000832116002680B4B1A400260031D0A4AD1
:102470001A60026822F48022026005480C30016074
:1024800002495806803908607047000088ED00E076
:1024900000380240FFFFF6FE103000240148FFF72D
:1024A00012BC000044010020084A10B5064B13601E
:1024B000D0600020C2E901101046FFF7BDFBBDE867
:1024C00010400248FFF7F2BB000400404401002026
:1024D000014908607047000038080040F0B5026804
:1024E000234D244E244FDFF894C0254B4FF0804EEF
:1024F000A84209D0704507D0B04205D0B84203D0F9
:10250000604501D0984203D122F070044A6822430A
:10251000A8421BD0704519D0B04217D0B84215D090
:10252000604513D0984211D0164CA0420ED0164CE4
:10253000A0420BD0154CA04208D0154CA04205D0AB
:10254000144CA04202D0144CA04203D122F4407497
:10255000CA68224302608A68C2620A688262A8422C
:1025600001D0984201D10969016301214161F0BDA7
:10257000000001400004004000080040000C004042
:102580000004014000400140004401400048014077
:1025900000180040001C00400020004010B501233E
:1025A000046A8B409C430462036A8A4013430362BB
:1025B00010BD000030B5026A22F001020262056A15
:1025C000426883690C6823F073031C438B6825F011
:1025D00002052B430B4DA84202D00B4DA8420BD154
:1025E00023F00805CB6822F440722B434D6923F099
:1025F000040315438A692A43426084614968416340
:10260000036230BD000001400004014030B5026AA1
:1026100022F010020262036A426884690D6824F4A1
:10262000E64444EA05248D6823F0200343EA0513B9
:102630000D4DA84202D00D4DA8420ED1CD6823F019
:10264000800343EA05134D6922F4406242EA8502A1
:102650008D6923F0400342EA850242608461496843
:102660008163036230BD00000000014000040140AE
:1026700030B5026A22F480720262036A4268C46959
:1026800023F4007324F073050C682C438D6843EA2F
:1026900005230D4DA84202D00C4DA8420ED1CD68A5
:1026A00023F4006343EA05234D6922F4405242EAD1
:1026B00005128D6923F4806342EA05124260C46109
:1026C0004968C163036230BD00000140000401405D
:1026D00030B5026A22F480520262036A4268C46919
:1026E0000D6824F4E64444EA05248D6823F400537D
:1026F00043EA0533084DA84202D0084DA84204D150
:102700004D6922F4804242EA85124260C461496800
:102710000164036230BD000000000140000401407C
:1027200010B590F83910222903D0322901D00220A7
:1027300010BD8168B1F5805F11D001690029016881
:102740001FD0496801F07F03816A4A1C82620B70C6
:10275000C18D491E0904090CC18518D02FE00269FA
:10276000816A002A0268526805D0D2B20A80816A62
:10277000491C8162ECE7C2F308020A80816A891C65
:10278000F7E74A68816A4B1C83620A70E0E70168D8
:10279000CA6822F02002CA6090F83910322910D09D
:1027A0000168CA6822F48072CA6001684A6922F02E
:1027B00001024A61012180F83910FFF775FD002000
:1027C00010BD1221F7E700002DE9F0410446006832
:1027D0000169E26821F440510A4302612068C1683E
:1027E00049F20C6291432369A268E5691A4363695F
:1027F0002B431A430A43C2602068416921F44072A6
:10280000A16911434161E06964263225B0F5004FAA
:10281000484A494920681DD0884201D0904269D178
:10282000FFF70AF800EBC00101EB00106168B04649
:102830008900B0FBF1F1B1FBF8F6FEF7FDFF00EB0C
:10284000C00101EB001061688900B0FBF1F7FEF7F1
:10285000F3FF68E0884201D0904219D1FEF7ECFF07
:1028600000EBC00101EB00106168B0464900B0FB0D
:10287000F1F1B1FBF8F6FEF7DFFF00EBC00101EB71
:10288000001061684900B0FBF1F7FEF7D5FF18E0D2
:10289000FEF7BCFF00EBC00101EB00106168B04621
:1028A0004900B0FBF1F1B1FBF8F6FEF7AFFF00EB2A
:1028B000C00101EB001061684900B0FBF1F7FEF7C1
:1028C000A5FF00EBC00101EB001061684900B0FBFF
:1028D000F1F1B1FBF8F06FF01801484307EB80000D
:1028E00005EB0011B1FBF8F0216866F31F1088605A
:1028F000BDE8F081FEF78AFF00EBC00101EB00109C
:102900006168B0468900B0FBF1F1B1FBF8F6FEF763
:102910007DFF00EBC00101EB001061688900B0FB96
:10292000F1F7FEF773FF00EBC00101EB00106168E7
:102930008900CCE7001401400010014090F83910E4
:10294000122903D0322901D0022070478168B1F5E5
:10295000805F016A0BD04A1C0262026809785160EC
:10296000C18C491E0904090CC1840ED017E00988E6
:102970000268C1F30801516001690029016A02D0AF
:10298000491C0162ECE7891CFBE70168CA6822F078
:102990008002CA600068C16841F04001C160002047
:1029A0007047000070B500240C4D0D48FFF761FB27
:1029B00002E0641CAC4204D80948FFF757FB012829
:1029C000F7D1002402E0641CAC4206D8012205497C
:1029D0000348FFF735FC0028F5D170BDFFFF01006B
:1029E0000401002020000020FEE703B4019841000C
:1029F000009850EAC12018BF04204A0D18BF40F0CB
:102A0000010040F2FF72B2EB515F08BF40F00200DC
:102A1000012808BF052002B07047704710B5044672
:102A20000420FFF7E7F80148046010BD1C000020F7
:102A300070B54FF0E02500216C69094AAB69126856
:102A40005043AA699A42FCD002D2A3EB020302E0EF
:102A5000A4EB02063344194413468142F1D370BDFE
:102A60001C00002003490A685206FCD5C2B24A6025
:102A7000704700000010014000252C46FEF7F8FCCE
:102A80000823022219214FF4B470FFF799FCB420F7
:102A9000FFF7C4FFFFF736FCFEF7B0FB4FF4E13061
:102AA00000F040F8592140F2F310FFF763FC42F6C2
:102AB000DF6140F68B20FFF7F7FC154EDFF85480FE
:102AC000DFF854A000274FF001094FF4967B6420F3
:102AD000FFF7AEFF307868B1D8F8000000F0F0FAE8
:102AE00041EC100B0DA053EC102BFDF7DDFB377004
:102AF0008AF800900DB1641C00E0641EA4B25C452D
:102B000000D9002504B901252046FFF7E1FCDEE7E6
:102B10003000002000000020340000202566722FC5
:102B2000730A00000B4910B5094AC1E900200020D2
:102B30008860C860086188610C2048610846FFF71A
:102B400012FBBDE81040012203490248FFF778BBA1
:102B500000100140040100202000002010B50029D1
:102B60000AD00878002807D005487844FDF746FFCA
:102B7000002801D0002010BD0248784410BD00009C
:102B8000160700000E07000021F00042A2F160527B
:102B9000B2F5801F01F0004328BFD2F17F6C0BD942
:102BA0005FEA001C43EAC20242EB507018BF704754
:102BB00028BF20F001007047B2F5801FBCBF184647
:102BC00070474FEA410C1CF5001F02D2084600F086
:102BD000EDBA70B500F020FA00000089FFF7F6BFEB
:102BE0004FF00040A0F58000704700002DE9C04183
:102BF00030B4DFF8A0C23CEA111418BF3CEA131449
:102C000000F0EC8081EA03051CEA111444EAD57453
:102C100018BF1CEA131500F0C780A4EB05044FF0A1
:102C2000004545EAC12145EAC32341EA505143EA40
:102C3000525304F17F74994204F500344FEAC020E6
:102C40004FEAC22208BF904200F09C804FEA136511
:102C50000FF24016765D4FEA134506FB05F7C7F104
:102C6000807706FB07F74FEAD737A7FB0368764262
:102C7000C8F58038A7FB06CE38BFA8F1010807FBCE
:102C800008E64FF0000EA6FB028CE6FB03CEDCF15B
:102C9000000CCEF1004E38BFAEF1010EA6FB0C5871
:102CA0004FF000074FF00005E6FB0E87A1FB08C6BA
:102CB000A0FB07CE16EB0E0645F10005E1FB07650C
:102CC00015F1E04E7EBFA4F580345FEA46066D4103
:102CD00016F1800745F100054FEA17274FEA06660F
:102CE00047EA0567A6F1DE46B6F1805F4FEA152593
:102CF0001FD9384624F0010C05EBC471BCF1FE6FFE
:102D000001EB0C1102D8F0BCBDE8008124425CBF8D
:102D100001F5801E9EEAC47F02D4F0BCBDE80081AC
:102D2000244238D4F0BCA1F1C041BDE8004100F01C
:102D3000C1B94FEAD22242EA43524FEAD323A7FB5A
:102D400002864FEAD02040EA415007FB03661EEAA4
:102D50000E0F4FEAD12105FB026658BFA6EB0056C5
:102D6000B6EB00564FEA520E4EEAC37E18EB0E0E3B
:102D700056EB530EBDD518EB02085E417F1C55F192
:102D80000005B6E74FF480154FF000074FF000063E
:102D90004FF00008ADE7F0BC4FF0000001F1C0417A
:102DA00001F00041BDE8008111EA0C1F0CEA131587
:102DB00000D00CE013EA0C1F00F025804FF000005B
:102DC000F0BC81EA030101F00041BDE80081F0BCE4
:102DD000BDE8004181EA030100F06CB9F0BCBDE838
:102DE000004170B500F018F9097EFC3E00F007B80C
:102DF00081EA03014FF0000001F00041704781EAD1
:102E0000030100F057B9F0BCBDE800414FF00000ED
:102E100021497047FFFDFBF9F7F5F4F2F0EEEDEB19
:102E2000E9E8E6E4E3E1E0DEDDDBDAD8D7D5D4D3C8
:102E3000D1D0CFCDCCCBCAC8C7C6C5C4C2C1C0BF14
:102E4000BEBDBCBBBAB9B8B7B6B5B4B3B2B1B0AF1A
:102E5000AEADACABAAA9A8A8A7A6A5A4A3A3A2A1FE
:102E6000A09F9F9E9D9C9C9B9A99999897979695B9
:102E700095949393929191908F8F8E8E8D8C8C8B55
:102E80008B8A8989888887878685858484838382DD
:102E9000828181800000FF070000F87FB0FA80F394
:102EA00010FA03F10AD0C3F11D0303F580634FEA62
:102EB00041504FEA035202EBD12170474FF000001E
:102EC00070470000DFF848C170B51CEA111E1EBF34
:102ED0001CEA13159EEA0C0F95EA0C0F00F06F80A8
:102EE00081EA030423EA4C134EEAD47E21EA4C1112
:102EF00041F4801143F48013AE44A1FB024CA0FBCB
:102F00000365AEF17F7E361955EB0C05A1FB034C32
:102F10004CF10003A0FB021C16EB0C06654153F1BB
:102F20000003094218BF46F0010613F4007F0BD1DD
:102F30004FEA03314FEA0530340341EA155140EAC4
:102F400016506FF003020AE04FEAC3214FEAC52092
:102F5000F40241EA555140EA56506FF0020202EB8A
:102F60002E4201EB025585EACE710AD05FEA440C8D
:102F700018BF24F0004450F1000041F1000120EAA4
:102F8000D47040F2FE7C624500D270BDA84214BFEE
:102F90004FF080444FF04044002E08BF0024BEF1A3
:102FA000806FA8BFA1F1C041BDE8704080F282806F
:102FB0004FF0000001F1C04101F0004170479EEA6E
:102FC0000C0F0CEA131518BF95EA0C0F06D04FF042
:102FD000000081EA030E0EF0004170BD00F01CF805
:102FE0008900013E00F007B800F009B84FEA430C31
:102FF0005FEA5C5C08D081EA030100F05BB84FEA4D
:10300000410C5FEA5C5CF6D14FF00000014970476B
:103010000000FF070000F87F0EF1020E2EF0030EF5
:103020005EF8046B364205D4012A43EB030515F51F
:10303000001F12D8012841EB010C1CF5001F0CD811
:103040000ED14FEAD17C15F5001F0CEB4C0C0CF1A6
:10305000020C08BF4CEBD37C04E04FF0080C01E0FD
:103060004FEAD37C0CEB4C0526FA05F606F0070672
:10307000B6F1040C06D20EEB860CBDE870404CF0A5
:10308000010C6047DFE80CF0090B02024FF0004131
:103090004FF00000A1F5002170BD1946104601282F
:1030A00051EB010418BFD4F5001484BF002001F0D7
:1030B000004170BD0808A0F500114FEA31017047CA
:1030C00043004FEAD30C4FEA3C0C43401FBF40077C
:1030D0000CF1605113F0FE4F70471CF0006F03D1EC
:1030E00000200CF0004170470CF0004343EA5070A0
:1030F00010B540EACC0000F00EF800BF00000092CE
:103100004FEA0001FFF7D6BF4FF000414FF000003B
:10311000A1F5002170470EF1020E2EF0030E5EF8AD
:10312000044B244204D44FEA4102B2F17F4F11D83C
:103130004FEA4003B3F17F4F0CD80ED14FEAD07C59
:10314000B2F17F4F0CEB4C0C0CF1020C08BF4CEBB6
:10315000D17C04E04FF0080C01E04FEAD17C0CEB8D
:103160004C0324FA03F404F00704B4F1040C06D26F
:103170000EEB840CBDE810404CF0010C6047DFE81A
:103180000CF0070802024FF00040A0F5800010BDCF
:103190000846420018BFD2F1807288BF00F000409C
:1031A00010BD4FF04070E1EE100A7047FF2141EA78
:1031B000D050C0057047FDF792B900000000010231
:1031C000030401020304060708090000024000008E
:1031D000000000A00000000005400000000000C842
:1031E000000000000C4000000000409C00000000B7
:1031F000194000000020BCBE000000003440000068
:10320000BFC91B8E00000004B5400000504BCFD05A
:103210006607E2CF010000006C4100003E8251AA27
:10322000DFEEA73401000000D9420000DCB5A0E2C7
:103230003A301F97FFFFFFFFB4450000FD25A0C8EF
:10324000E9A3C14FFFFFFFFFFF3F00000000008028
:1032500000000000FF3F00000000008000000000B0
:103260009C320008000000203C000000E80100083B
:10327000D83200083C000020FC07000004020008CF
:103280001C00000043000000F8FFFFFF0C000000DE
:103290000E0000000F0000002E00000000000000E3
:1032A0000024F400000000000000000001020304FC
:1032B00006070809000000000000000000000000F0
:1032C00000000000000000000000000000000000FE
:0832D0000000000000000000F6
:04000005080001AD41
:00000001FF
